:020000040800F2
:1060000000FC002031AC0008ADAC000839AD000840
:10601000A5AD0008A7AD0008A9AD0008000000006C
:10602000000000000000000000000000ABAD000810
:10603000ADAD000800000000AFAD0008AFAD000836
:1060400081AC000881AC0008CDAD000881AC00082F
:1060500081AC000881AC000823AE000829AE00081E
:106060002FAE000835AE00083BAE0008D9AD0008E1
:10607000E5AD0008F1AD0008FDAD000881AC0008F9
:1060800081AC000881AC000881AC000881AC00083C
:1060900081AC000881AC000841AE000881AC00086A
:1060A00081AC000881AC000881AC000881AC00081C
:1060B00081AC000881AC000881AC000881AC00080C
:1060C000EDAE0008F9AE000881AC000881AC000814
:1060D00009AE000821AE0008D5AE000881AC00086A
:1060E00081AC000881AE0008B5AD000881AC0008A5
:1060F00081AC000881AC000881AC000881AC0008CC
:1061000081AC000881AC0008C1AD000805AF0008F3
:1061100081AC000881AC000881AC000881AC0008AB
:1061200081AC000881AC000881AC000881AC00089B
:0861300081AC000881AC0008FD
:1061400010B5054C237833B9044B13B10448AFF3B1
:1061500000800123237010BD480E002000000000C5
:10616000A0DC020808B5034B1BB103490348AFF399
:10617000008008BD000000004C0E0020A0DC0208DA
:1061800010F8012B11F8013B012A28BF9A42F7D0E1
:10619000D01A7047034613F8012B002AFBD1181AB6
:1061A00001387047000000000000000000000000FF
:1061B00001F0FF01102A2BDB10F0070F08D010F8B8
:1061C000013B013A8B422DD010F0070F42B3F6D1BC
:1061D000F0B441EA012141EA014122F007047FF0D5
:1061E00000070023F0E80256083C85EA010586EA2C
:1061F000010685FA47F5A3FA87F586FA47F6A5FA68
:1062000087F68EB9EED1F0BC01F0FF0102F0070273
:1062100032B110F8013B013A83EA010313B1F8D11E
:106220000020704701387047002D06BF35460338FF
:10623000073815F0010F07D1013015F4807F02BF38
:10624000013015F4C03F0130F0BC0138704700BF89
:1062500081F0004102E000BF83F0004330B54FEA17
:1062600041044FEA430594EA050F08BF90EA020F84
:106270001FBF54EA000C55EA020C7FEA645C7FEA17
:10628000655C00F0E2804FEA5454D4EB5555B8BF3A
:106290006D420CDD2C4480EA020281EA030382EAAB
:1062A000000083EA010180EA020281EA0303362D3D
:1062B00088BF30BD11F0004F4FEA01314FF4801C10
:1062C0004CEA113102D0404261EB410113F0004F22
:1062D0004FEA03334CEA133302D0524263EB4303D9
:1062E00094EA050F00F0A780A4F10104D5F1200E77
:1062F0000DDB02FA0EFC22FA05F2801841F10001D2
:1063000003FA0EF2801843FA05F359410EE0A5F1A5
:1063100020050EF1200E012A03FA0EFC28BF4CF0D6
:10632000020C43FA05F3C01851EBE37101F000458C
:1063300007D54FF0000EDCF1000C7EEB00006EEB99
:106340000101B1F5801F1BD3B1F5001F0CD3490823
:106350005FEA30004FEA3C0C04F101044FEA44527A
:1063600012F5800F80F09A80BCF1004F08BF5FEA01
:10637000500C50F1000041EB045141EA050130BDE1
:106380005FEA4C0C404141EB0101013C28BFB1F5F3
:10639000801FE9D291F0000F04BF01460020B1FA3E
:1063A00081F308BF2033A3F10B03B3F120020CDA11
:1063B0000C3208DD02F1140CC2F10C0201FA0CF0EF
:1063C00021FA02F10CE002F11402D8BFC2F1200C54
:1063D00001FA02F120FA0CFCDCBF41EA0C0190400A
:1063E000E41AA2BF01EB0451294330BD6FEA040453
:1063F0001F3C1CDA0C340EDC04F11404C4F120023E
:1064000020FA04F001FA02F340EA030021FA04F34F
:1064100045EA030130BDC4F10C04C4F1200220FAA6
:1064200002F001FA04F340EA0300294630BD21FAE4
:1064300004F0294630BD94F0000F83F4801306BFAA
:1064400081F480110134013D4EE77FEA645C18BF9E
:106450007FEA655C29D094EA050F08BF90EA020F35
:1064600005D054EA000C04BF1946104630BD91EA2D
:10647000030F1EBF0021002030BD5FEA545C05D130
:106480004000494128BF41F0004130BD14F580046F
:106490003CBF01F5801130BD01F0004545F0FE41E3
:1064A00041F470014FF0000030BD7FEA645C1ABF18
:1064B000194610467FEA655C1CBF0B46024650EA4F
:1064C000013406BF52EA033591EA030F41F400217B
:1064D00030BD00BF90F0000F04BF0021704730B501
:1064E0004FF4806404F132044FF000054FF00001D6
:1064F00050E700BF90F0000F04BF0021704730B597
:106500004FF4806404F1320410F0004548BF40426B
:106510004FF000013EE700BF42004FEAE2014FEAC0
:1065200031014FEA02701FBF12F07F4393F07F4F9B
:1065300081F06051704732F07F4208BF704793F09E
:106540007F4F04BF41F40021704730B54FF46074B1
:1065500001F0004521F000411CE700BF50EA0102B4
:1065600008BF704730B54FF000050AE050EA01025D
:1065700008BF704730B511F0004502D5404261EBCD
:1065800041014FF4806404F132045FEA915C3FF40E
:10659000D8AE4FF003025FEADC0C18BF03325FEAAB
:1065A000DC0C18BF033202EBDC02C2F1200300FA5C
:1065B00003FC20FA02F001FA03FE40EA0E0021FA81
:1065C00002F11444BDE600BF70B54FF0FF0C4CF46F
:1065D000E06C1CEA11541DBF1CEA135594EA0C0F21
:1065E00095EA0C0F00F0DEF82C4481EA030621EA5C
:1065F0004C5123EA4C5350EA013518BF52EA033597
:1066000041F4801143F4801338D0A0FB02CE4FF048
:106610000005E1FB02E506F00042E0FB03E54FF078
:106620000006E1FB03569CF0000F18BF4EF0010E70
:10663000A4F1FF04B6F5007F64F5407404D25FEA6C
:106640004E0E6D4146EB060642EAC62141EA55511F
:106650004FEAC52040EA5E504FEACE2EB4F1FD0C61
:1066600088BFBCF5E06F1ED8BEF1004F08BF5FEADF
:10667000500E50F1000041EB045170BD06F0004691
:1066800046EA010140EA020081EA0301B4EB5C043E
:10669000C2BFD4EB0C0541EA045170BD41F4801136
:1066A0004FF0000E013C00F3AB8014F1360FDEBF5B
:1066B000002001F0004170BDC4F10004203C35DA37
:1066C0000C341BDC04F11404C4F1200500FA05F3BA
:1066D00020FA04F001FA05F240EA020001F000425B
:1066E00021F0004110EBD37021FA04F642EB0601D1
:1066F0005EEA430E08BF20EAD37070BDC4F10C04FB
:10670000C4F1200500FA04F320FA05F001FA04F2BE
:1067100040EA020001F0004110EBD37041F10001AA
:106720005EEA430E08BF20EAD37070BDC4F12005B5
:1067300000FA05F24EEA020E20FA04F301FA05F21D
:1067400043EA020321FA04F001F0004121FA04F2C5
:1067500020EA020000EBD3705EEA430E08BF20EA95
:10676000D37070BD94F0000F0FD101F000464000CF
:1067700041EB010111F4801F08BF013CF7D041EA51
:10678000060195F0000F18BF704703F00046520055
:1067900043EB030313F4801F08BF013DF7D043EA26
:1067A0000603704794EA0C0F0CEA135518BF95EADC
:1067B0000C0F0CD050EA410618BF52EA4306D1D163
:1067C00081EA030101F000414FF0000070BD50EA82
:1067D000410606BF1046194652EA430619D094EA0C
:1067E0000C0F02D150EA013613D195EA0C0F05D1F6
:1067F00052EA03361CBF104619460AD181EA03014A
:1068000001F0004141F0FE4141F470014FF0000001
:1068100070BD41F0FE4141F4780170BD70B54FF09C
:10682000FF0C4CF4E06C1CEA11541DBF1CEA13551C
:1068300094EA0C0F95EA0C0F00F0A7F8A4EB0504FE
:1068400081EA030E52EA03354FEA013100F08880F5
:106850004FEA03334FF0805545EA131343EA1263BE
:106860004FEA022245EA111545EA10654FEA002673
:106870000EF000419D4208BF964244F1FD0404F52C
:10688000407402D25B084FEA3202B61A65EB030588
:106890005B084FEA32024FF480104FF4002CB6EB45
:1068A000020E75EB030E22BFB61A754640EA0C00C5
:1068B0005B084FEA3202B6EB020E75EB030E22BF05
:1068C000B61A754640EA5C005B084FEA3202B6EB46
:1068D000020E75EB030E22BFB61A754640EA9C0005
:1068E0005B084FEA3202B6EB020E75EB030E22BFD5
:1068F000B61A754640EADC0055EA060E18D04FEA93
:10690000051545EA16754FEA06164FEAC30343EA32
:1069100052734FEAC2025FEA1C1CC0D111F4801FFF
:106920000BD141EA00014FF000004FF0004CB6E7F8
:1069300011F4801F04BF01430020B4F1FD0C88BF97
:10694000BCF5E06F3FF6AFAEB5EB030C04BFB6EBA2
:10695000020C5FEA500C50F1000041EB045170BD95
:106960000EF0004E4EEA113114EB5C04C2BFD4EBC2
:106970000C0541EA045170BD41F480114FF0000E46
:10698000013C90E645EA060E8DE60CEA135594EAC2
:106990000C0F08BF95EA0C0F3FF43BAF94EA0C0FC5
:1069A0000AD150EA01347FF434AF95EA0C0F7FF43A
:1069B00025AF104619462CE795EA0C0F06D152EA8E
:1069C00003353FF4FDAE1046194622E750EA410672
:1069D00018BF52EA43067FF4C5AE50EA41047FF483
:1069E0000DAF52EA43057FF4EBAE12E74FF0FF3CE8
:1069F00006E000BF4FF0010C02E000BF4FF0010CB9
:106A00004DF804CD4FEA410C7FEA6C5C4FEA430C31
:106A100018BF7FEA6C5C1BD001B050EA410C0CBF80
:106A200052EA430C91EA030F02BF90EA020F0020E2
:106A3000704710F1000F91EA030F58BF994208BF49
:106A400090422CBFD8176FEAE37040F00100704706
:106A50004FEA410C7FEA6C5C02D150EA013C07D15D
:106A60004FEA430C7FEA6C5CD6D152EA033CD3D0A8
:106A70005DF8040B704700BF8446104662468C46A2
:106A80001946634600E000BF01B5FFF7B7FF0028D5
:106A900048BF10F1000F01BD4DF808EDFFF7F4FFFE
:106AA0000CBF012000205DF808FB00BF4DF808ED89
:106AB000FFF7EAFF34BF012000205DF808FB00BFAC
:106AC0004DF808EDFFF7E0FF94BF012000205DF8CE
:106AD00008FB00BF4DF808EDFFF7CEFF94BF012083
:106AE00000205DF808FB00BF4DF808EDFFF7C4FF7C
:106AF00034BF012000205DF808FB00BF4FEA410CC5
:106B00007FEA6C5C02D150EA013C0AD14FEA430CA7
:106B10007FEA6C5C02D152EA033C02D14FF00000E4
:106B200070474FF0010070474FEA410212F5001222
:106B300015D211D56FF47873B3EB625212D94FEAC4
:106B4000C12343F0004343EA505311F0004F23FAAE
:106B500002F018BF404270474FF00000704750EA03
:106B6000013005D111F0004008BF6FF000407047C0
:106B70004FF00000704700BF80F0004002E000BF0F
:106B800081F0004142001FBF5FEA410392EA030F18
:106B90007FEA226C7FEA236C6AD04FEA1262D2EB62
:106BA0001363C1BFD218414048404140B8BF5B4267
:106BB000192B88BF704710F0004F40F4000020F000
:106BC0007F4018BF404211F0004F41F4000121F016
:106BD0007F4118BF494292EA030F3FD0A2F1010260
:106BE00041FA03FC10EB0C00C3F1200301FA03F19E
:106BF00000F0004302D5494260EB4000B0F5000FC1
:106C000013D3B0F1807F06D340084FEA310102F17F
:106C10000102FE2A51D2B1F1004F40EBC25008BF31
:106C200020F0010040EA03007047490040EB0000FB
:106C3000013A28BFB0F5000FEDD2B0FA80FCACF1FC
:106C4000080CB2EB0C0200FA0CF0AABF00EBC25029
:106C500052421843BCBFD0401843704792F0000F17
:106C600081F4000106BF80F400000132013BB5E76A
:106C70004FEA41037FEA226C18BF7FEA236C21D0E0
:106C800092EA030F04D092F0000F08BF0846704745
:106C900090EA010F1CBF0020704712F07F4F04D113
:106CA000400028BF40F00040704712F100723CBF26
:106CB00000F50000704700F0004343F0FE4040F450
:106CC000000070477FEA226216BF08467FEA23630E
:106CD0000146420206BF5FEA412390EA010F40F4F9
:106CE000800070474FF0000304E000BF10F0004345
:106CF00048BF40425FEA000C08BF704743F096432C
:106D000001464FF000001CE050EA010208BF704746
:106D10004FF000030AE000BF50EA010208BF7047CD
:106D200011F0004302D5404261EB41015FEA010CE2
:106D300002BF84460146002043F0B64308BFA3F1DA
:106D40008053A3F50003BCFA8CF2083AA3EBC253BC
:106D500010DB01FA02FC634400FA02FCC2F12002DB
:106D6000BCF1004F20FA02F243EB020008BF20F012
:106D70000100704702F1200201FA02FCC2F1200278
:106D800050EA4C0021FA02F243EB020008BF20EA6D
:106D9000DC7070474FF0FF0C1CEAD0521EBF1CEA9B
:106DA000D15392EA0C0F93EA0C0F6FD01A4480EA89
:106DB000010C400218BF5FEA41211ED04FF0006372
:106DC00043EA501043EA5111A0FB01310CF000409E
:106DD000B1F5000F3EBF490041EAD3715B0040EAC4
:106DE000010062F17F02FD2A1DD8B3F1004F40EB94
:106DF000C25008BF20F00100704790F0000F0CF067
:106E0000004C08BF49024CEA502040EA51207F3A2A
:106E1000C2BFD2F1FF0340EAC250704740F4000005
:106E20004FF00003013A5DDC12F1190FDCBF00F0F6
:106E300000407047C2F10002410021FA02F1C2F1A4
:106E4000200200FA02FC5FEA310040F1000053EA40
:106E50004C0308BF20EADC70704792F0000F00F08E
:106E6000004C02BF400010F4000F013AF9D040EA94
:106E70000C0093F0000F01F0004C02BF490011F428
:106E8000000F013BF9D041EA0C018FE70CEAD15326
:106E900092EA0C0F18BF93EA0C0F0AD030F0004CA6
:106EA00018BF31F0004CD8D180EA010000F000405A
:106EB000704790F0000F17BF90F0004F084691F018
:106EC000000F91F0004F14D092EA0C0F01D1420252
:106ED0000FD193EA0C0F03D14B0218BF084608D11B
:106EE00080EA010000F0004040F0FE4040F4000065
:106EF000704740F0FE4040F4400070474FF0FF0CF8
:106F00001CEAD0521EBF1CEAD15392EA0C0F93EA3E
:106F10000C0F69D0A2EB030280EA010C49024FEA90
:106F2000402037D04FF0805343EA111143EA101349
:106F30000CF000408B4238BF5B0042F17D024FF401
:106F4000000C8B4224BF5B1A40EA0C00B3EB510FDC
:106F500024BFA3EB510340EA5C00B3EB910F24BFC5
:106F6000A3EB910340EA9C00B3EBD10F24BFA3EB4A
:106F7000D10340EADC001B0118BF5FEA1C1CE0D112
:106F8000FD2A3FF650AF8B4240EBC25008BF20F0C5
:106F9000010070470CF0004C4CEA50207F32C2BF19
:106FA000D2F1FF0340EAC250704740F400004FF0B6
:106FB0000003013A37E792F0000F00F0004C02BFE7
:106FC000400010F4000F013AF9D040EA0C0093F0B1
:106FD000000F01F0004C02BF490011F4000F013B0B
:106FE000F9D041EA0C0195E70CEAD15392EA0C0F73
:106FF00008D142027FF47DAF93EA0C0F7FF470AFAB
:10700000084676E793EA0C0F04D14B023FF44CAFED
:1070100008466EE730F0004C18BF31F0004CCAD182
:1070200030F000427FF45CAF31F000437FF43CAFBE
:107030005FE700BF4FF0FF3C06E000BF4FF0010CE0
:1070400002E000BF4FF0010C4DF804CD4FEA4002C2
:107050004FEA41037FEA226C18BF7FEA236C11D00C
:1070600001B052EA530C18BF90EA010F58BFB2EBBF
:10707000030088BFC81738BF6FEAE17018BF40F03F
:10708000010070477FEA226C02D15FEA402C05D1F3
:107090007FEA236CE4D15FEA412CE1D05DF8040B78
:1070A000704700BF844608466146FFE70FB5FFF70B
:1070B000C9FF002848BF10F1000F0FBD4DF808EDC3
:1070C000FFF7F4FF0CBF012000205DF808FB00BFB4
:1070D0004DF808EDFFF7EAFF34BF012000205DF80E
:1070E00008FB00BF4DF808EDFFF7E0FF94BF01205B
:1070F00000205DF808FB00BF4DF808EDFFF7D2FF58
:1071000094BF012000205DF808FB00BF4DF808ED9A
:10711000FFF7C8FF34BF012000205DF808FB00BF67
:1071200042000ED2B2F1FE4F0BD34FF09E03B3EBF1
:10713000126209D44FEA002343F0004323FA02F01D
:1071400070474FF00000704712F1610F01D1420209
:1071500002D14FF0FF3070474FF00000704700BF82
:1071600053B94AB9002908BF00281CBF4FF0FF31AE
:107170004FF0FF3000F06CB9ADF1080C6DE904CEB2
:1071800000F006F8DDF804E0DDE9022304B0704702
:107190002DE9F047089E0D4604468E46002B40F030
:1071A00082808A42174646D9B2FA82F24AB1C2F1C7
:1071B000200105FA02F320FA01F1974041EA030E9B
:1071C00094404FEA1748230CBEFBF8FCB9B208FB09
:1071D0001CEE43EA0E430CFB01F098420AD9FB185F
:1071E0000CF1FF3580F01681984240F21381ACF12A
:1071F000020C3B441B1AA4B2B3FBF8F008FB10339B
:1072000044EA034400FB01F1A14209D93C1900F111
:10721000FF3380F00181A14240F2FE8002383C44FD
:10722000641A40EA0C4000211EB1D4400023C6E994
:107230000043BDE8F08702B9FFDEB2FA82F2002A0D
:107240004FD1CB1B4FEA174E1FFA87F80121B3FB32
:10725000FEFC250C0EFB1C3345EA034508FB0CF332
:10726000AB4207D97D190CF1FF3002D2AB4200F2DC
:10727000E7808446ED1AA3B2B5FBFEF00EFB105575
:1072800043EA054408FB00F8A04507D93C1900F182
:10729000FF3302D2A04500F2D7801846A4EB0804C1
:1072A00040EA0C40C0E78B4208D9002E00F0AF80C6
:1072B0000021C6E900050846BDE8F087B3FA83F16E
:1072C00000294BD1AB4202D3824200F2B780841A2C
:1072D00065EB030301209E46002EAAD0C6E9004EAE
:1072E000A7E7C2F1200C01FA02F3974020FA0CF054
:1072F0004FEA174E21FA0CFC1843BCFBFEF1050CBB
:107300000EFB11CC1FFA87F845EA0C4501FB08F388
:10731000AB4204FA02F409D97D1901F1FF3C80F077
:107320008B80AB4240F2888002393D44EB1A85B233
:10733000B3FBFEF00EFB103345EA034500FB08F3F8
:10734000AB4207D97D1900F1FF3C71D2AB426FD936
:1073500002383D44EB1A40EA014178E7C1F1200CC4
:107360008B4022FA0CF71F4320FA0CF405FA01F3C4
:107370004FEA174E25FA0CF51C43230CB5FBFEF91A
:107380001FFA87F80EFB195543EA054509FB08FA71
:10739000AA4502FA01F200FA01F308D97D1909F1B0
:1073A000FF3047D2AA4545D9A9F102093D44A5EBD2
:1073B0000A05A4B2B5FBFEF00EFB105544EA0544E5
:1073C00000FB08F8A04507D93C1900F1FF352DD284
:1073D000A0452BD902383C4440EA0940A4EB0804FC
:1073E000A0FB02894C45C6464D4619D316D05EB166
:1073F000B3EB0E0264EB050404FA0CFCCA404CEA41
:107400000202CC40C6E900240021BDE8F0873146E5
:1074100030460EE7AC46EDE6184601E74345E6D2B6
:10742000B8EB020E69EB07050138E0E72846D3E721
:1074300060468FE78146BAE7614677E708464BE743
:10744000ACF1020C3D4415E702383C4426E700BF8E
:10745000704700BF1FB50446104A1149114805F096
:1074600037FD94F90630207802930F49B4F90430BF
:107470000E4A0193A3780093002818BF0A46637848
:107480000B49084805F024FD0A49064805F020FD8F
:10749000642004B0BDE810400FF02EBA1BDE0208D5
:1074A00021DE02088C1C002014DE02080CDE02081B
:1074B00027DE020829DF020810B50C4A0C490446F1
:1074C0000C4805F005FD0C4B0C4A0D490948002CF1
:1074D00008BF1A4605F0FCFC0A49064805F0F8FC0E
:1074E000BDE8104064200FF007BA00BF55DE020867
:1074F00021DE02088C1C002049DE02084CDE020856
:1075000060DE020829DF020838B50D4C0D4A0E492D
:107510000546204605F0DCFC2A460C49204605F0CD
:10752000D7FC0B49204605F0D3FC64200FF0E4F9AA
:107530000021012005F00FFD064B00221A7038BD16
:107540008C1C002073DE020821DE020879DE0208AE
:1075500029DF0208700E002010B50C4C0C4A0D49B2
:10756000204605F0B5FC0C49204605F0B1FC0B495E
:10757000204605F0ADFC64200FF0BEF9002101208B
:1075800005F0E9FC064B00221A7010BD8C1C00208F
:1075900086DE020821DE020890DE020829DF0208EA
:1075A000700E0020F7B50446174A18491848194FBD
:1075B000174E05F08DFC94F90C300193B4F90A30A4
:1075C0002278154900931248637805F081FC13492D
:1075D0000F4805F07DFC64200FF08EF90025237A1A
:1075E000AB4207DD636839465A5D304605F070FCF2
:1075F0000135F4E70A49064805F049FC094B002229
:107600001A7003B0F0BD00BFA0DE020821DE020840
:107610008C1C0020E1E30208A6DE020829DF020834
:1076200028DF0208700E00207FB504AB03E90700D5
:10763000154A16491648174E154D05F049FC9DF997
:107640000C30BDF90A201449114805F041FC1349DA
:107650000F4805F03DFC64200FF04EF900249DF822
:107660000830A34207DD019B31461A5D284605F02C
:107670002FFC0134F3E70A49054805F008FC094BE3
:1076800000221A7004B070BDCADE020821DE0208B2
:107690008C1C0020E1E30208D4DE020829DF020886
:1076A00028DF0208700E002010B5044600F0B0FE7E
:1076B000204610BD10B50446124A1349134874B150
:1076C00005F006FC1249114805F002FC11490F486B
:1076D00005F0FEFBBDE8104064200FF00DB905F089
:1076E000F7FB0D49094805F0F3FB0A49074805F087
:1076F000EFFB64200FF000F921460120BDE81040A7
:1077000005F029BCECDE020821DE02088C1C0020FA
:10771000F4DE020829DF020811DF0208014805F043
:10772000F2BB00BFDC1C002073B53C4805F05DF9DE
:107730000128054638D13A483A4E00F073FE044617
:10774000374800F071FE384B1B780193374B1B789C
:107750000093374B024621461B78364805F093F8D4
:107760000446354A354936487CB105F0B1FB354908
:10777000334805F0ADFB3449314805F0A9FB6420DE
:107780000FF0BAF8357002B070BD05F0A1FB2F49BB
:107790002B4805F09DFB2C49294805F099FB6420F6
:1077A0000FF0AAF83470EEE7234A2449244805F084
:1077B0008FFB2749224805F08BFB2349204805F021
:1077C00087FB64200FF098F80021012005F0C3FB2F
:1077D000134800F027FE0446114800F025FE21461C
:1077E000024601231B4805F01EF8134A134980B1D5
:1077F000134805F06DFB1849114805F069FB124963
:107800000F4805F065FB642002B0BDE870400FF042
:1078100073B80B4805F05CFB0C49EDE76B1D0020CD
:10782000680E0020700E0020650E0020640E0020FF
:1078300005000020481D00202BDF020821DE020881
:107840008C1C002032DF020829DF02084ADF020810
:1078500056DF02086C1D00206BDF020808B51F4AC6
:107860001F49204805F034FB1F491E4805F030FB36
:107870001E491C4805F02CFB64200FF03DF8012147
:10788000084605F068FB1A4805F0AFF8012815D145
:10789000184805F08BF888B9104A1149114805F0CD
:1078A00017FB15490F4805F013FB10490D4805F06B
:1078B0000FFBBDE8084064200FF01EB80F4800F031
:1078C000AEFD0F4805F056F9012102460B4800F0C5
:1078D0008DFEBDE80840FFF727BF00BF2BDF020881
:1078E00021DE02088C1C00207BDF020829DF020851
:1078F0006B1D0020531D002081DF0208680E002050
:10790000411D00201FB5894805F06FF8012840F09F
:10791000F680874805F03CF8864B1870864804F0DE
:10792000D7FF864B1870864805F042F8854B86498C
:107930001870814804F0CEFF84497F4804F0DAFFD4
:1079400083497D4804F0CEFF82497B4804F0DAFF8A
:107950000121002005F0E8FA0121002005F0FBFAE2
:107960000121084605F0E0FA0121084605F0F3FA86
:107970000121082005F0D8FA0021082005F0EBFAD3
:10798000022306224FF4E131734804F0D9FE41F29C
:1079900088300EF0B1FF714901A805F0BDF901A9C9
:1079A0006F4805F0C7F801A805F070F96D496A48FD
:1079B00005F084FA6C49684805F080FA6B4966481E
:1079C00005F07CFA664901A805F09EF8019A68491D
:1079D000614805F07DFA01A805F058F962495E4852
:1079E00005F06CFA634805F027FA00F0D7FB78B988
:1079F000614A6249584805F06BFA6149564805F0FA
:107A000067FA6049544805F063FA64200EF074FF89
:107A100000F0AEFB78B9584A58494F4805F058FA7B
:107A200059494D4805F054FA56494B4805F050FA6B
:107A300064200EF061FF00F05FFC0021084605F0B5
:107A40008AFA524A52480123002105F0BCF8514BF2
:107A50005A6822B100234E48194605F0BEF8334853
:107A600004F0C3FF0446002856D10146012005F06A
:107A700072FA2046FFF7F2FE2C4804F0B6FF012808
:107A800037D12C4B3C4A1B783C493348002B48D01B
:107A900005F01EFA4049304805F01AFA39492E48D7
:107AA00005F016FA64200EF027FF334A33492A48BE
:107AB00005F00EFA214B39491A78274805F008FAE3
:107AC0003049254805F004FA64200EF015FF2A4AD3
:107AD0002A49214805F0FCF91A4B31491A781E4809
:107AE00005F0F6F927491C4805F0F2F964200EF07C
:107AF00003FF01212B4805F00EFA04B010BD2A49FE
:107B00002A4804F0A7FE2A49284804F0ABFE294978
:107B1000264804F0AFFE1BE70221274804F056FF79
:107B2000AAE705F0D5F92549B5E700BF6B1D002090
:107B3000501D0020640E0020481D0020650E00200E
:107B4000571D002004000020A575000809750008D5
:107B5000B5760008557400088C1C00209ADF0208D6
:107B6000EC1C0020B0DF0208C6DF0208FDDF0208BF
:107B70003DE00208841D002049E0020821DE0208E1
:107B80004FE0020829DF020871E002085D78000872
:107B9000451D0020080000209AE00208BFE002080E
:107BA000CAE00208DD1C0020297600086C1D0020B8
:107BB00059750008B97400086A1D0020ACE002087D
:107BC00010B5064CFF21204600F016FC2046044A62
:107BD0000449BDE8104001F07BB800BF680E0020EA
:107BE00000000020A976000810B598B01446994905
:107BF0000EA805F091F80023CDE91433CDE9163332
:107C0000636E012B06D194492068FEF7B9FA18B1CA
:107C10000224F8E1002BFBD19049914805F058F976
:107C200090498F4805F054F964200EF065FE8E49A6
:107C300011A804F089FF11A90EA805F07FF811A87A
:107C400005F024F80EA805F0A3F80E9A8749844899
:107C500005F03EF98349824805F03AF964200EF0B8
:107C60004BFE834911A804F04FFF119A81497C48CB
:107C700005F02EF911A805F009F87A49784805F0C1
:107C800027F964200EF038FE7B4B7C495A68744813
:107C90004FF47A73B2FBF3F205F01AF971497048A8
:107CA00005F016F964200EF027FE754804F09DFEDD
:107CB000744B754953F820200446694805F008F9CB
:107CC0006849674805F004F964200EF015FE012CA0
:107CD00040F09F816D4804F069FE6D4B6D4A6E491E
:107CE000002808BF1A465E4805F0F2F85D495C4876
:107CF00005F0EEF864200EF0FFFD684804F05AFE2F
:107D000067490246564805F0E3F85649544805F0DD
:107D1000DFF864200EF0F0FD624804F040FE0446F7
:107D2000002800F0CF8060494D4805F0D1F84D495A
:107D30004B4805F0CDF864200EF0DEFD082214A9B2
:107D40005A4804F013FE9DF8573005939DF85630BD
:107D500004939DF8553003939DF8543002939DF899
:107D6000533001939DF852309DF8502050490093B4
:107D70003B489DF8513005F0ABF83A49384805F0DA
:107D8000A7F864200EF0B8FD082214A9494804F0B1
:107D9000C1FD9DF8573005939DF8563004939DF82A
:107DA000553003939DF8543002939DF8533001935E
:107DB0009DF852309DF850203F49009328489DF887
:107DC000513005F085F82749254805F081F86420F1
:107DD0000EF092FD102214A9384804F0A4FD9DF87D
:107DE0005F300D939DF85E300C939DF85D300B93E2
:107DF0009DF85C300A939DF85B3009939DF85A30EA
:107E000008939DF8593007939DF8583006939DF8D4
:107E1000573005939DF8563004939DF855300393E1
:107E20009DF8543002939DF8533001939DF85230E1
:107E300000939DF850209DF851302149084805F0E5
:107E400047F80849064805F043F864200EF054FD51
:107E50000024D8E02ADF0208D8140308DDE0020875
:107E60008C1C002028DF02081C1D0020ECE002080A
:107E7000E01C0020F7E002080800002003E10208EF
:107E80006B1D00201000002013E10208531D00208C
:107E9000D2E002084BF2020823E10208691D00202B
:107EA0002EE10208521D002039E102084D1D00207C
:107EB00043E10208491D00206DE102084A1D00202F
:107EC00097E102089149924805F002F891499048DB
:107ED00004F0FEFF64200EF00FFD102214A98E485E
:107EE00004F02AFD9DF85F300D939DF85E300C93F1
:107EF0009DF85D300B939DF85C300A939DF85B30E4
:107F000009939DF85A3008939DF8593007939DF8CE
:107F1000583006939DF8573005939DF856300493DA
:107F20009DF8553003939DF8543002939DF85330DB
:107F300001939DF852309DF8502078490093744881
:107F40009DF8513004F0C4FF7249714804F0C0FF3D
:107F500064200EF0D1FC102214A9714804F00FFD2A
:107F60009DF85F300D939DF85E300C939DF85D3069
:107F70000B939DF85C300A939DF85B3009939DF854
:107F80005A3008939DF8593007939DF8583006935E
:107F90009DF8573005939DF8563004939DF8553061
:107FA00003939DF8543002939DF8533001939DF84C
:107FB00052309DF850205B49009355489DF8513050
:107FC00004F086FF5349524804F082FF64200EF00B
:107FD00093FC042214A9544804F0B7FC9DF85330D4
:107FE00001939DF8523000939DF850209DF8513038
:107FF0004E49474804F06CFF4649454804F068FF85
:1080000064200EF079FC0EA804F040FE204618B063
:1080100010BD4748002C52D104F0F9FB45490246F7
:108020003B4804F055FF3B49394804F051FF6420B8
:108030000EF062FC404804F0ECFB40490246344834
:1080400004F046FF3349324804F042FF64200EF04A
:1080500053FC3B4804F0DFFB3A4902462C4804F04D
:1080600037FF2C492A4804F033FF64200EF044FC0B
:10807000354804F0D2FB35490246254804F028FF74
:108080002449234804F024FF64200EF035FC3048D6
:1080900004F0C5FB2F4902461D4804F019FF1D4995
:1080A0001B4804F015FF64200EF026FC2A4804F05B
:1080B000B8FB2A490246164804F00AFF9CE704F080
:1080C000A6FB1C490246124804F002FF1149104861
:1080D00004F0FEFE64200EF00FFC214804F0B6FB15
:1080E000204902460A4804F0F3FE0A49084804F011
:1080F000EFFE64200EF000FC1B4804F0A9FB1B49B6
:108100000246034804F0E4FE9BE600BFE1E10208FA
:108110008C1C002028DF02084B1D0020EAE1020829
:108120004F1D002035E202084C1D00207FE20208AE
:10813000771D00209AE20208781D0020A5E20208BF
:10814000791D0020ADE202087A1D0020B5E2020888
:108150007B1D0020BDE202087C1D0020D2E2020847
:10816000801D0020E0E20208811D0020EDE20208EF
:1081700007B503230193054B0093054B054A0648B9
:10818000194604F0FFFC03B05DF804FBF181000820
:10819000FBE2020803E30208421D002007B50223A8
:1081A0000193054B0093054B054A0648194604F018
:1081B000E9FC03B05DF804FBE97B000856E3020824
:1081C0005DE30208421D002008B50021064A074869
:1081D000082304F0EEFC014620B9034A03480823B3
:1081E00004F0E7FC012008BD08000020431D00202A
:1081F000536E012B2DE9F041884627D1166833498B
:10820000334D3046FDF7BCFF6F68044690B93149E5
:10821000314842464FF47A73B7FBF3F304F058FE4B
:108220002E492D4804F054FE64200EF065FB2046D4
:10823000BDE8F0813046FDF7ADFF32463044904254
:1082400006D012F8013B303B092BF8D90224EEE7A7
:108250000A220021304601F029FB214A2149044627
:108260001D4804F035FE22461F491B4804F030FE2D
:108270001E49194804F02CFE64200EF03DFB4FF41B
:108280007A70174A1749444313486C6004F020FE83
:108290006A681749104804F01BFE14490E4804F0A0
:1082A00017FE64200EF028FB1248002104F09FFC0A
:1082B0006A6822B100230F48194604F08EFC6B68EF
:1082C0009F4201D0FFF780FF0024B0E7D8140308D5
:1082D0000800002074E302088C1C002028DF02083C
:1082E0007BE3020821DE020882E3020829DF02089C
:1082F0009BE30208451D0020F7B500266A4631467B
:1083000032480196AA2708238DF8007004F047FC34
:1083100004462F4A2F4930486CB904F0D9FD2F4943
:108320002D4804F0D5FD2E492B4804F0D1FD6420E2
:108330000EF0E2FA39E004F0CBFD9DF80020294967
:108340002548294D04F0C4FD2549234804F0C0FD0B
:1083500064200EF0D1FA1E4A1E491F4804F0B8FDF1
:10836000019A22491C4804F0B3FD1D491A4804F043
:10837000AFFD64200EF0C0FA9DF80030AA2B17D094
:10838000134A1449144804F0A3FD1949124804F093
:108390009FFD1349104804F09BFD64200EF0ACFAD9
:1083A0002F706E60FFF710FF3446204603B0F0BD1B
:1083B000019B074A074908486B6004F089FD6A6819
:1083C0000C49054804F084FDADE700BF431D0020C3
:1083D0007BE3020821DE02088C1C0020AFE30208C8
:1083E00029DF0208D7E3020808000020E6E30208BC
:1083F000FEE302082BE4020838B5044600250846CF
:108400002171A57100F09CFC65712060204638BD8B
:1084100010B50446006800F09BFC204610BD002308
:108420004371704740797047006870478E294ED875
:10843000702903D8032943D80120704771391D29B9
:1084400045D801A353F821F039840008CF840008EF
:108450003984000839840008398400083984000808
:10846000CF8400083984000839840008CF840008CC
:10847000CF840008CF84000839840008CF84000826
:10848000CF84000839840008CF84000839840008AC
:1084900039840008398400083984000839840008C8
:1084A0003984000839840008CF840008CF8400088C
:1084B000CF840008CF840008CF84000839840008E6
:1084C000A1F1640004288CBF002001207047002027
:1084D000704700BF882918D8702906D803290FD8FB
:1084E000012994BF00200120704771390123C9B2CE
:1084F00003FA01F1064B194214BF01200020704716
:10850000A1F167035842584170470020704700BFEF
:108510000101A0002DE9F84F04460E4690461D4685
:10852000FFF784FF18B90223A371BDE8F88F8E2EE0
:1085300098BF2C4B94F805909CBF9F5D2A4B2279E5
:1085400094BF33F816B0002709EB070303F10103CA
:1085500088BFBB46934203DB0123A3710020E4E7FD
:1085600000212846FEF7B4FD0021B0F1000A28469C
:1085700018BF4FF0010AFEF7ABFD08B105F1004549
:108580005846FEF7AFFB2946FEF704FCFEF7C8FD90
:10859000314605462046FFF79DFF40B1BAF1000F76
:1085A00005D0FA0001239340581E05405D1B236847
:1085B00009F10102627103F8098063792268591C8C
:1085C0006171D654002201326379D1B2B9423B4481
:1085D00004D821689B1ACD542D0AF4E7D8B26071F3
:1085E000A3E700BF4FE40208DEE4020808B5134623
:1085F0000A467421FFF78EFF08BD03F001BA03F0AD
:1086000004BA704770B5002386B0CDE904334FF04B
:10861000B0420F4DD16C41F00201D164D26C039392
:1086200002F002024FF48056009201A92846CDE9DB
:108630000163009A10F0D8FC3146284610F0F4FD92
:1086400031460446284610F07BFD204606B070BD3A
:10865000000400480D2070474FF0B04382B0DA6C40
:108660000243DA64DB6C18400190019B02B0704752
:108670002DE9F04186B01422002101A800F07EFB14
:108680000220FFF7E9FF144D144F0420FFF7E4FF29
:108690004FF4807601230024CDE9016301A903236F
:1086A0002846CDE903434FF4005810F09DFC01A982
:1086B0003846CDF8048010F097FC224641463846F3
:1086C00010F0B8FD28462246314610F0B3FD204692
:1086D00006B0BDE8F08100BF000400480008004873
:1086E000032810B50ED8012810D868B902460B48E7
:1086F0004FF4807110F09EFD002209484FF40051A4
:1087000010F098FD002010BD0122F0E70022034880
:108710004FF4807110F08EFD0122EEE70004004856
:108720000008004802207047002070470120704771
:1087300010B59AB04822002108A800F01FFB1822AB
:10874000002102A800F01AFB11F030FC4FF0B042FB
:108750000024D2F8903023F01803C2F89030D2F8F9
:10876000003423F4C06343F40073C2F80034D2F839
:108770000034119403F4C06301934FF48072019BA1
:108780000C922E234022089381230B930D920123F8
:10879000B02208A8CDE90E3410931292139411F070
:1087A00057FD08B103F056FB4F23022102A8CDE983
:1087B0000234CDE90444CDE9064411F0E9FF08B1E3
:1087C00003F048FB1AB010BD13B50378082B11D87D
:1087D000DFE803F0128287108E8E05109200047974
:1087E00020460CF0D3FE20460CF07AFE00212046F5
:1087F0000CF0D4FE02B010BD00200CF0C7FE012822
:1088000039D101200CF0C2FE012804D001200EF065
:1088100087FC00283DDC02200CF0B8FE0128E9D0DE
:1088200002200EF07DFC0028E4DD012201A90220D7
:108830000EF040FB02200CF0A9FE0028F0D102202F
:108840000EF04CFC00283FD19DF8041002200CF0E3
:10885000B3FDE5E7012201A900200EF02BFB00206B
:108860000CF094FE044630B90EF038FC48B99DF87F
:1088700004100CF0A1FD00200EF052FC0028E9DCF1
:10888000BFE70128F7D19DF8041020460EF07EFBCB
:10889000F1E7012201A910460EF00CFB01200CF0BB
:1088A00075FE0028B2D101200EF018FC28B99DF801
:1088B000041001200CF080FDA8E70128A6D19DF846
:1088C00004100EF063FBA1E70128A9D19DF8041064
:1088D00002200EF05BFBA3E716F0EAFF05F002FCB6
:1088E00088E7074B1B68002B84D04068984781E7D6
:1088F00040680EF0C3FC7DE740680EF063F979E74D
:10890000D466002030B5284B284A9A6085B00EF016
:1089100001FDFFF70DFF4FF0B0430B209A6C42F0C2
:1089200004029A649A6C02F004020392039A9A6C0D
:1089300042F001029A649B6C002203F0010311468D
:108940000293029B0FF04EF90B200FF07DF90EF011
:1089500077FC0DF079FF0CF023FF0024014605465B
:10896000234603220120CDE900440EF0E5F9234619
:10897000032229460220CDE900440EF0DDF90CF077
:10898000BDFF06F0DFF9E5B228460CF0FFFD10B997
:1089900028460CF0A5FD0134032CF4D105B0BDE848
:1089A00030400EF031BC00BF00ED00E00060000878
:1089B0000EF038BCF7B5FFF7A5FF4FF0B0432E4ED1
:1089C000DA6C2E4C42F00202DA64DB6C03F0020334
:1089D0000193019B08F01EFC294B341B14274743CD
:1089E00000251C44BD4223D302F01EF9FFF70AFE06
:1089F00098B3244804F002FB234B24481A68244B04
:108A0000196804F0FBFA23480EF018FA04F096FDFA
:108A1000012824D0022824D010B91F480EF00EFAE5
:108A20001E4C0EF0FFFB2378EBB902F0FFF8F8E7DD
:108A30006A46042160190DF079FF69463246042325
:108A400012F801CB11F8010B844518BF02F8010C94
:108A5000013BF5D104350436C4E71148CAE7114893
:108A6000DCE71148DAE70CF0D7FD0028D9D0002068
:108A70000EF02CF9D5E700BFB8030020000000205D
:108A8000A01B0308FCE502088800002012E602088B
:108A9000A000002022E6020836E60208710E00203F
:108AA00007E6020842E602084DE60208054808B556
:108AB0000823036012F03AFA18B1BDE8084003F049
:108AC000C9B908BD705F00204FF0B04307B55A6EBA
:108AD00042F001025A665B6E002203F0010301932B
:108AE00011463220019B0FF07DF8322003B05DF873
:108AF00004EB0FF0A9B80000024B9868024BC0438A
:108B00001860704700280040740E0020014B186860
:108B1000704700BF740E0020034B044A9B68106826
:108B2000DB43181A704700BF00280040740E002075
:108B3000034B187810B1034B9868C043704700BFCF
:108B4000720E0020002800400320704708B501463F
:108B50004FF47A720023C003490CFEF701FB08BDF5
:108B60004FF47A72A0FB0223D00B40EA43407047D7
:108B700010B5074B074C0122DA654FF4807120468F
:108B800011F004FF4FF0FF332363002010BD00BF3E
:108B900000280040BC61002002460021014812F07C
:108BA0000AB900BFBC61002002460121014812F051
:108BB00002B900BFBC61002010B58CB02C2200218E
:108BC000044601A800F0DAF8FFF7D2FF0C4B186852
:108BD00000230444089306934FF00053E4430793A3
:108BE000084802944FF48073012201A90B9311F0FD
:108BF000E3FF08B103F02EF900200CB010BD00BF58
:108C0000740E0020BC6100200C4B70B59C680646B9
:108C100002210B4812F0D6F8E44300221219C2F3E5
:108C20000E044FF47A71A4FB014540F10003E40BFC
:108C3000D00B348040EA434070BD00BF00280040A4
:108C4000BC6100200148002112F0BCB8BC610020CA
:108C50000148012112F0B6B8BC610020F8B5114EF0
:108C60003578E5B9104C2A4629464FF0FF3728469B
:108C7000276302F02FFEFFF77BFF4FF48071204641
:108C800011F084FE2046276312F040F82A460221A4
:108C9000204612F090F8FFF72FFF012333700020D9
:108CA000F8BD00BF720E0020BC61002015F0C0BBF3
:108CB00010B5064C0221204612F084F80221421C15
:108CC0002046BDE8104012F076B800BFBC6100201D
:108CD0000B460146184600F001B8000010B50446E6
:108CE0000448134620B10A4602202146AFF3008013
:108CF00010BD00BF0000000070B50D4D0D4C641B91
:108D0000A4100026A64209D10B4D0C4C24F0C8FF3C
:108D1000641BA4100026A64205D170BD55F8043B83
:108D200098470136EEE755F8043B98470136F2E7DD
:108D3000801B0308801B0308801B0308941B030887
:108D4000024B0146186800F06FB800BFA400002075
:108D5000024B0146186800F019B800BFA4000020BB
:108D60000A44914200F1FF3300D1704710B511F869
:108D7000014B03F8014F9142F9D110BD0244034663
:108D8000934200D1704703F8011BF9E738B5054657
:108D9000002945D051F8043C0C1F002BB8BFE41843
:108DA00001F0F0FB1F4A1368104633B9636014608A
:108DB0002846BDE8384001F0EBBBA3420BD921683F
:108DC0006218934204BF1A685B68636004BF52185C
:108DD00022600460ECE71A465B680BB1A342FAD943
:108DE00011685018A0420BD12068014450188342EA
:108DF0001160DDD118685B68536001441160D7E7EA
:108E000002D90C232B60D3E7206821188B4204BFC2
:108E100019685B68636004BF091821605460C7E784
:108E200038BD00BF780E0020F8B5CD1C25F0030535
:108E300008350C2D38BF0C25002D064601DBA94254
:108E400003D90C2333600020F8BD01F09BFB2149BE
:108E50000A6814469CB9204F3B6823B92146304626
:108E600000F098FC38602946304600F093FC431C23
:108E700023D10C233360304601F08AFBE3E72368FB
:108E80005B1B17D40B2B03D923601C44256004E023
:108E90006368A2420CBF0B605360304601F078FB60
:108EA00004F10B00231D20F00700C21ACCD01B1ABE
:108EB000A350C9E722466468CCE7C41C24F003042D
:108EC000A042E3D0211A304600F064FC0130DDD12D
:108ED000CFE700BF780E00207C0E00202DE9F04780
:108EE00088B0002B1F461446B8BF03F10043129A06
:108EF000109DDDF84CA0B6BF1F4600232D23137034
:108F0000149B23F02008B8F1460F05D0B8F1450FA7
:108F100000D10135022300E0032307AA049206AA28
:108F2000CDE902A2CDE9003522463B4600F054FDD2
:108F3000B8F1470F064602D1119BDB0722D5B8F1E5
:108F4000460F06EB050910D13378302B0AD10022E9
:108F5000002320463946FDF79FFD18B9C5F10105EC
:108F6000CAF80050DAF80030994400220023204665
:108F70003946FDF791FD08B1CDF81C903022079BD2
:108F80004B4507D3079B159A9B1B3046136008B0CF
:108F9000BDE8F087591C07911A70F0E7F7B5034652
:108FA0000029B8BF494203F8022BB4BF2D222B225F
:108FB000092942702ADD0DF10704A4460A27A646B6
:108FC0000A4691FBF7F607FB16153035632A04F1C4
:108FD000FF340EF8015C3146F1DC3031AEF10205B0
:108FE00004F8011C441C294661450AD30DF109020D
:108FF000A2EB0E02654588BF00221344181A03B085
:10900000F0BD11F8012B04F8012FEDE730233031CA
:109010008370C170031DF1E72DE9F04F91B00C464C
:10902000DDF8688016461F46054601F0A7FA03687A
:1090300009931846FDF7AEF800230E93D8F80030D8
:109040000A90073323F0070303F1080294F81890FD
:10905000D4F800B0C8F80020D3E90023C4E91223F3
:10906000D4E9128A2AF000430B930B999C4B4FF0E2
:10907000FF324046FDF742FD70BB994B0B994FF014
:10908000FF324046FDF71CFD30BB00220023404666
:109090005146FDF70BFD10B12D2384F84330914B61
:1090A0009148B9F1470F94BF984680460323236146
:1090B0002BF0040323604FF0000A009733460FAAF9
:1090C0002146284600F0D2F9013040F08F804FF061
:1090D000FF3011B0BDE8F08F42465346404651463E
:1090E000FDF70CFD40B1BAF1000FBCBF2D2384F891
:1090F00043307E487E4BD4E763685A1C09F0DF0199
:1091000042D106236360002206920EAACDE90492A2
:109110000DAA4BF4806303920DF13302CDE90132C5
:109120002360636800934246534628460B91FFF73D
:10913000D5FE0B99472980460D9908D1C81C02DB42
:109140006368994240DDA9F102095FFA89F9B9F132
:10915000650F1FD801394A4604F150000D91FFF701
:109160001DFF0E9A1318012A8246236102DC226831
:10917000D20701D5013323619DF83330002B9CD0F9
:109180002D2384F8433098E74729BCD1002BBAD16E
:109190000123B7E7B9F1660F18D1002963680BDD29
:1091A000216113B92268D00702D501330B44236132
:1091B000A1654FF0000ADFE713B92268D20701D595
:1091C0000233F4E70123F2E74FF067090E9B99425F
:1091D00005DB23682161D807EAD54B1CE7E70029A6
:1091E000D4BFC1F1020201221344E0E723685A050B
:1091F00007D42369424631462846B84701302BD16F
:1092000065E7B9F1650F40F2DC80D4E91201002274
:109210000023FDF741FC002833D0364A01233146B4
:109220002846B84701303FF452AFDDE90D239A429A
:1092300002DB2368D8070FD5DDE90923314628462C
:10924000B84701303FF443AF4FF0000804F11A096A
:109250000E9B013B434509DC23689B0700F101811C
:10926000E0680F9B9842B8BF184632E701234A4690
:1092700031462846B84701303FF429AF08F10108CC
:10928000E6E70D9B002B37DC1A4A012331462846BE
:10929000B84701303FF41BAFDDE90D23134302D182
:1092A0002368D907D8D5DDE9092331462846B847D0
:1092B00001303FF40CAF4FF0000904F11A0A0D9B86
:1092C0005B424B4501DC0E9B94E70123524631463D
:1092D0002846B84701303FF4FAAE09F10109EEE73C
:1092E000FFFFEF7F8DE7020891E7020899E7020888
:1092F00095E70208AEDF02080E9AA36D9A42A8BF56
:109300001A46002A914637DC4FF0000B29EAE9792A
:1093100004F11A02D4F858A0AAEB09035B4533DC28
:10932000DDE90D239A423BDB2368DA0738D40E9A35
:109330000D99A2EB0A03A2EB01099945A8BF994632
:10934000B9F1000F34DC4FF0000829EAE97904F1A3
:109350001A0ADDE90D239B1AA3EB090343457FF7A6
:109360007BAF0123524631462846B84701303FF4CF
:10937000AEAE08F10108ECE71346314642462846F6
:10938000B8470130C0D1A2E60123314628460B92EE
:10939000B84701303FF49BAE0B9A0BF1010BB9E7D4
:1093A000DDE9092331462846B8470130BFD18EE6B2
:1093B0004B4608EB0A0231462846B8470130C2D175
:1093C00085E60E9A012A01DCDB0737D501234246E8
:1093D00031462846B84701303FF479AEDDE909232C
:1093E00031462846B84701303FF471AED4E9120146
:1093F00000220023FDF750FBD8B90E9B08F10102B3
:10940000013B31462846B84701300ED15FE60123C3
:109410004A4631462846B84701303FF458AE08F175
:1094200001080E9B013B4345F1DC534604F1500219
:10943000E1E64FF0000804F11A09F2E70123424681
:10944000DFE701234A4631462846B84701303FF45A
:109450003EAE08F10108E3680F995B1A4345F0DC62
:10946000FEE64FF0000804F11909F4E72DE9F04792
:10947000164699468A680B69DDF820809342B8BF8A
:109480001346336091F8432007460C460AB1013376
:1094900033602368990642BF33680233336025681E
:1094A00015F0060506D104F1190AE36832689B1A23
:1094B000AB4226DC94F84320131E226818BF012318
:1094C00092062BD404F1430249463846C047013086
:1094D0001ED02368E568326803F00603042B08BF3A
:1094E000AD1AA36822690CBF25EAE57500259342F1
:1094F000C4BF9B1AED1800261A34B5421AD10020B9
:1095000008E00123524649463846C047013003D19E
:109510004FF0FF30BDE8F0870135C6E7E1185A1C6F
:10952000302081F84300224494F8451082F843101B
:109530000233C7E70123224649463846C047013077
:10954000E6D00136D9E700002DE9FF470C469146E9
:10955000277E0C99782F80469A4604F1430207D85B
:10956000622F0AD8002F00F0D880582F00F0A38077
:1095700004F1420684F842703AE0A7F16303152B28
:10958000F6D801A050F823F0E1950008F595000801
:109590007195000871950008719500087195000893
:1095A000F5950008719500087195000871950008FF
:1095B000719500080197000825960008E3960008B9
:1095C00071950008719500082397000871950008AF
:1095D000259600087195000871950008EB96000823
:1095E0000B681A1D1B680A6004F1420684F84230B9
:1095F0000123A3E0256808682E0600F104030AD5BC
:1096000005680B60002D03DA2D236D4284F843308A
:109610005E480A2319E015F0400F05680B6018BF7B
:109620002DB2EFE70B682568181D0860280601D5E4
:109630001D6802E06906FBD51D8854486F2F0CBFDA
:1096400008230A23002184F843106668A660002ED0
:10965000A2BF216821F0040121600DB9002E4DD078
:109660001646B5FBF3F103FB1157C75D06F8017D04
:109670002F46BB420D46F4D9082B0BD12368DF07D8
:1096800008D5236961689942DEBF302306F8013CA2
:1096900006F1FF36921B2261CDF800A04B4603AACB
:1096A00021464046FFF7E2FE01304CD14FF0FF303B
:1096B00004B0BDE8F087354884F8457023680E682B
:1096C0001F0656F8045B0E6014D5D90744BF43F05B
:1096D000200323601DB9236823F020032360102397
:1096E000B0E7236843F0200323607823284884F8F8
:1096F0004530E3E75E0648BFADB2E6E71646BBE796
:109700000B68266860691D1D0D6035061B6801D554
:10971000186002E07106FBD518800023236116460D
:10972000BAE70B681A1D0A601E686268002130469D
:10973000FCF73EFD08B1801B606063682361002375
:1097400084F84330A8E72369324649464046D0476B
:109750000130ABD023689B0713D4E068039B984289
:10976000B8BF1846A4E70123324649464046D047D1
:1097700001309BD00135E36803995B1AAB42F2DC00
:10978000EBE7002504F11906F5E700BF9DE70208A5
:10979000AEE7020838B5064D0023044608462B60A4
:1097A00001F034FA431C02D12B6803B1236038BDA9
:1097B0007C5F00202DE9F0433B4E86468C46604698
:1097C0001CF8014BA55D15F00805F8D12D2C34D1FE
:1097D0009CF800404FF0010800F1020C002B5ED015
:1097E000102B0CD1302C0AD19CF8000000F0DF00C7
:1097F00058284FD19CF8014010230CF1020C4FF077
:10980000FF370025B7FBF3F703FB07F96FEA0909F8
:109810002846A4F13006092E18D83446A34224DD88
:10982000002D1FDB87421DD301D1A1451ADB00FBB0
:10983000034001251CF8014BEBE72B2C08BF9CF8DB
:109840000040A84608BF00F1020CC7E7A4F141069A
:10985000192E01D8373CE1E7A4F16106192E04D88E
:10986000573CDBE74FF0FF35E4E7002D07DA222312
:10987000CEF800304FF0FF3042B9BDE8F083B8F1C8
:10988000000F00D04042002AF7D00DB10CF1FF319B
:109890001160F2E73024002BB1D10823AFE7302C60
:1098A000A2D00A23ABE700BFC0E7020813460A466E
:1098B000014602480068FFF77DBF00BFA4000020FA
:1098C0002DE9F74F03690C69A3420746C0F2818076
:1098D000013C01F1140800F1140505EB8403019328
:1098E00058F8243055F8242001339A424FEA840B6B
:1098F00008EB8409B2FBF3F631D34FF0000E40467B
:10990000AC46F24650F8042B93B206FB03E34FEA51
:10991000134E9BB2AAEB0303120CDCF800A006FB6B
:1099200002E213FA8AF34FEA124E1FFA82FADCF8C7
:109930000020CAEB124202EB23429BB243EA0243ED
:1099400081454CF8043B4FEA224ADBD255F80B30F4
:109950002BB9019B043B9D421A462ED33C613846ED
:1099600001F045F8002824DB013628464FF0000CB2
:1099700058F8042BD0F800E093B2ACEB0303120CC0
:1099800013FA8EF3C2EB1E4202EB23429BB243EA70
:109990000243C14540F8043B4FEA224CE8D255F857
:1099A000242005EB840322B9043B9D421A460AD3C6
:1099B0003C61304603B0BDE8F08F1268043B002ADA
:1099C000CCD1013CC7E71268043B002AF0D1013C2E
:1099D000EBE70020EEE700002DE9F04F446A99B074
:1099E00016461F46CDE90467DDF8948005463CB96C
:1099F0001020FFF7A5F9C0E9014468620460C46063
:109A00006B6A196851B15A684A60012393408B60B0
:109A1000284600F0F7FD6B6A00221A603B1EB9BFB2
:109A200023F0004305930023C8F80030DDF81490BC
:109A3000A74BBCBF0122C8F8002033EA090319D1A3
:109A4000249A42F20F731360C9F31303334300F0F7
:109A50006D85269B53B99F4B23E09F4B039308339F
:109A6000269A1360039819B0BDE8F08F994B0393C1
:109A70000333F5E7DDE90434CDE90C34DDE90C010D
:109A800000220023FDF708F8804660B1249A0123E4
:109A90001360269B002B00F04685904B269A13609E
:109AA000013B0393DEE716AB019317AB0093284607
:109AB000DDE90C2301F02CF8C9F30A548346002C8D
:109AC0007ED00D9BCDF84C80C3F31303DDE90C0170
:109AD00043F07F5141F44011A4F2FF34804B002247
:109AE000FCF7BAFB74A3D3E90023FCF76DFD74A364
:109AF000D3E90023FCF7B2FB064620460F46FCF7ED
:109B0000F9FC71A3D3E90023FCF75EFD02460B4686
:109B100030463946FCF7A2FB06460F46FDF704F82F
:109B200000228246002330463946FCF7BFFF48B189
:109B30005046FCF7DFFC32463B46FCF7ADFF08B968
:109B40000AF1FF3ABAF1160F57D8664B03EBCA0376
:109B5000D3E90023DDE90C01FCF7A8FF00284ED073
:109B60000AF1FF3A00230F93169B1C1B631E0993F7
:109B700045BFC4F101030693002300234CBF0993A2
:109B80000693BAF1000F3CDB099BCDF838A0534493
:109B9000099300230A93229B092B00F2B580052B21
:109BA000C4BF043B2293229BA3F10203CCBF002439
:109BB0000124032B00F2B480DFE803F02D987AA48F
:109BC000DDE916431C4404F23243202BC3BFC3F12A
:109BD000400304F2124009FA03F3C3F12003C6BFA5
:109BE00026FA00F0184306FA03F0FCF773FC012391
:109BF000A1F1F871013C139370E70123B3E70F90D3
:109C0000B2E7069BA3EB0A030693CAF100030A938B
:109C100000230E93BFE700230B93239B002B00F33D
:109C200082804FF00109CDF820904B46CDF88C9002
:109C30006E6A00227260042202F114009842716878
:109C400077D9284600F0AAFC6B6A30601B68039342
:109C5000089B0E2B00F2EE80002C00F0EB80BAF196
:109C6000000F7ADD1F4A0AF00F0302EBC303D3E9AA
:109C700000341AF4807FCDE910344FEA2A145CD006
:109C8000194BDDE90C01D3E90823FCF7C7FDCDE949
:109C9000040104F00F040327134E002C4FD1DDE91B
:109CA0001023DDE90401FCF7B9FDCDE904016EE004
:109CB0000123B1E7AFF3008061436F63A787D23F11
:109CC000B3C8608B288AC63FFB799F501344D33FAB
:109CD0000000F07FC9E80208C0E80208AFDF020810
:109CE0000000F83FF8E80208D0E8020800230B93D0
:109CF000239B0AEB030909F10103012B0893B8BF69
:109D0000012395E70123F2E70124002322930B941A
:109D10004FF0FF390022CDF820901223239287E7DD
:109D200001230B93F4E7DDF88C90CDF820904B469F
:109D30007EE70131716052007EE70227ACE7E10760
:109D400008D5DDE91001D6E90023FCF73DFCCDE99B
:109D500010010137641008369FE700F0A580CAF1B2
:109D60000004A44BA44E04F00F0203EBC203D3E99A
:109D70000023DDE90C01FCF727FCCDE904012411E7
:109D800000230227002C40F08480002B8DD10F9BF4
:109D9000002B00F08B80DDE90434CDE91034DDE9DF
:109DA0001001964B0022FCF781FE00287ED0089B14
:109DB000002B7BD0B9F1000F38DDDDE91001904BAD
:109DC0000022FCF701FCCDE904010AF1FF3801375C
:109DD0004C463846FCF78EFBDDE90423FCF7F4FB28
:109DE000884B0022FCF73AFAA1F15076CDE9100138
:109DF0001196002C5DD1DDE90401834B0022FCF7B4
:109E00002BFA02460B46CDE90423109A3346FCF7A1
:109E10006BFE002840F09782DDE90401109A06F1FC
:109E20000043FCF743FE002840F08B82DDE90C3450
:109E3000CDE90434179B002BC0F25181BAF10E0F0B
:109E400000F34D816B4B03EBCA03D3E90034CDE93A
:109E50000634239B002B80F2DB80089B002B00F351
:109E6000D78040F06D82684B0022DDE90601FCF7E7
:109E7000ABFBDDE90423FCF72DFE089C26460028F9
:109E800040F04382039F312307F8013B0AF1010AA6
:109E90003FE2E20705D5D6E90023FCF795FB013741
:109EA0000123641008366DE7022770E7089CD0464E
:109EB0008FE703994F4B214412910B9903EBC40395
:109EC000DDE9106753E90223002946D04F490020FD
:109ED000FCF7A4FC3B463246FCF7BEF9CDE9100185
:109EE000039FDDE90401FCF71FFE0446FCF702FBBB
:109EF00002460B46DDE90401FCF7AEF930340246B8
:109F00000B46CDE9042307F8014BDDE91023FCF7EC
:109F1000CDFD002865D1DDE9042338490020FCF798
:109F20009BF9DDE91023FCF7C1FD002840F0B68065
:109F3000129B9F423FF47AAFDDE91001304B0022C3
:109F4000FCF742FB2E4BCDE910010022DDE90401B4
:109F5000FCF73AFBCDE90401C3E730463946FCF78C
:109F600033FBCDE91001129B039C1493DDE904013E
:109F7000FCF7DAFD1590FCF7BDFA02460B46DDE969
:109F80000401FCF769F9159B303304F8013B129B7F
:109F90009C4206460F464FF0000224D11B4BDDE9E0
:109FA0001001FCF75BF902460B4630463946FCF7D8
:109FB0009BFD002871D1DDE9102314490020FCF736
:109FC0004BF902460B4630463946FCF76FFD002838
:109FD0003FF42CAF149F7B1E149317F8013C302BD9
:109FE000F8D0C24649E0064BFCF7EEFACDE9040191
:109FF000BCE700BFF8E80208D0E802080000F03F24
:10A000000000244000001C40000014400000E03F1D
:10A01000DDE90489039FDDE9062340464946FCF754
:10A02000FDFBFCF781FD0446FCF764FADDE906233D
:10A03000FCF7CAFA04F130060B4602464946404690
:10A04000FCF70AF907F8016B039E089BBE1BB3429D
:10A0500038D102460B46FCF701F9DDE906238046BC
:10A060008946FCF741FD58BBDDE9062340464946D9
:10A07000FCF712FD08B1E10722D42846594600F04A
:10A08000C1FA00233B70249B0AF101001860269B53
:10A09000002B3FF4E7AC1F60E4E427463B461F4635
:10A0A00013F8012D392A07D1039A9A42F7D103995F
:10A0B000302208F101080A701A7801321A7090E70C
:10A0C000D046EBE7A14B0022FCF77EFA00220023EA
:10A0D00080468946FCF7E0FC00289CD0CDE70B9A2F
:10A0E000002A00F0CD80229A012A00F3AF80139A53
:10A0F000002A00F0A78003F233430A9C069F069AC9
:10A100001A440692099A01211A442846099200F03D
:10A110001CFB0646002F0CDD099B002B09DDBB4212
:10A12000069AA8BF3B46D21A0692099AFF1AD31A7A
:10A1300009930A9BF3B10B9B002B00F0A580002C28
:10A1400010DD31462246284600F0A4FB5A4601465F
:10A150000646284600F002FB59468046284600F095
:10A1600051FAC3460A9B1A1B04D05946284600F0F0
:10A1700091FB83460121284600F0E7FA0E9B002B55
:10A18000044640F383801A460146284600F082FBCD
:10A19000229B012B04467CDD4FF00008236904EB71
:10A1A0008303186900F083FAC0F12000099B18446A
:10A1B00010F01F0000F08E80C0F12003042B40F34C
:10A1C0008780C0F11C00069B03440693099B03444F
:10A1D00007440993069B002B05DD59461A4628467D
:10A1E00000F0A6FB8346099B002B05DD21461A469D
:10A1F000284600F09DFB04460F9B002B6CD02146A7
:10A20000584600F0F4FB002866DA002359460A227B
:10A21000284600F00EFA0B9B0AF1FF3A8346002B0A
:10A2200000F08B81314600230A22284600F001FA13
:10A23000B9F1000F064600F39180229B022B40F3F8
:10A240008D8051E0169BC3F1360356E7089B5C1ED8
:10A250000A9BA342BFBF0A9B0A94E21A0E9BB6BF99
:10A260009B181C1B0E93089BB8BF0024002BB9BF82
:10A27000069B089A069F089BBCBF9F1A00233EE7D7
:10A280000A9C069F0B9E45E70A9A6EE7229B012BCC
:10A2900019DC049BBBB9059BC3F313039BB9059B56
:10A2A00023F000431B0D1B0583B1069B013306936E
:10A2B000099B013309934FF001080E9B002B7FF49B
:10A2C0006DAF012072E74FF00008F6E79846F4E71B
:10A2D00080D018461C3076E7089B002B38DC229B88
:10A2E000022B35DDDDF82090B9F1000F0DD12146AC
:10A2F0004B460522284600F09CF901460446584684
:10A3000000F075FB00283FF7BDAD239B039F6FEA6C
:10A31000030A4FF000082146284600F073F9002E8A
:10A320003FF4ABAEB8F1000F05D0B04503D04146C5
:10A33000284600F067F93146284600F063F99CE6AC
:10A3400000242646E1E7C24626469BE5000024405D
:10A350000B9BDDF82090002B00F0F680002F05DD30
:10A3600031463A46284600F0E3FA0646B8F1000FB7
:10A3700055D07168284600F011F93269023207465B
:10A38000920006F10C010C30FEF7EAFC012239467E
:10A39000284600F0CDFA039B01330893039B4B44FE
:10A3A0000A93049B03F00103B04609930646089BF9
:10A3B0002146013B58460493FFF782FA03463033A7
:10A3C0000690414658460B9300F011FB32468146F9
:10A3D0002146284600F026FBC2680B9B074602BBBD
:10A3E0000146584600F003FB0B9B024639462846BF
:10A3F000CDE90B3200F006F9229B0C9A089F43EA44
:10A400000201099B0B430B9B0DD1392B29D0B9F1CC
:10A41000000F01DD069B3133049A13707BE7304651
:10A42000B9E70122E2E7B9F1000F06DB229941EA20
:10A430000909099959EA010120D1002AECDD5946A0
:10A4400001222846089300F073FA2146834600F063
:10A45000CEFA0028089B02DCDED1DA07DCD5392BE6
:10A46000D8D1049A392313703B461F46013B17F895
:10A47000012C392A50D001321A704CE7002A03DD32
:10A48000392BEED00133C7E7089A0A9902F8013C4C
:10A490008A422AD0594600230A22284600F0C9F8E9
:10A4A000B04583464FF000034FF00A02414628466C
:10A4B00007D100F0BEF880460646089B013308939A
:10A4C00075E700F0B6F83146804600230A22284698
:10A4D00000F0AFF80646F0E7B9F1000F039ACCBFE1
:10A4E0004F46012717444FF00008594601222846DD
:10A4F000089300F01DFA2146834600F078FA002800
:10A50000B2DC02D1089BDB07AED43B461F4613F8F2
:10A51000012D302AFAD0FEE6039A9A42A5D10AF11B
:10A52000010A312379E7134BFFF7BBBA269B002BB7
:10A530007FF493AA104BFFF7B4BAB9F1000F03DC14
:10A54000229B022B3FF7D0AE039F21465846FFF7D0
:10A55000B7F900F1300307F8013B039ABA1A9145A5
:10A56000BADD594600230A22284600F062F88346E5
:10A57000EBE700BFAEDF0208C0E802080048704702
:10A58000F8010020014800F020BB00BF845F0020DC
:10A59000014800F01BBB00BF845F002070B5466A15
:10A5A00004460D463EB91020FEF7CAFBC0E901661D
:10A5B00060620660C660666AF36883B1636ADB68DE
:10A5C00053F82500B8B9012101FA05F6721D920071
:10A5D000204600F0ECFA60B1C0E901560EE02122FD
:10A5E0000421204600F0E3FA636AF060DB68002B88
:10A5F000E4D1002070BD026843F825200023C0E9A3
:10A600000333F7E770B5466A05460C463EB910209D
:10A61000FEF796FBC0E9016668620660C6603CB161
:10A620006B6A6268DB6853F82210216043F82240AD
:10A6300070BD2DE9F0410E69074698460C4601F1C0
:10A64000140000230568A9B202FB01814FEA114CF6
:10A650002D0C02FB05C589B2013301EB05419E4279
:10A6600040F8041B4FEA1548ECDCB8F1000F1BD092
:10A67000A368B34212DC616838460131FFF78EFFF0
:10A680002269023204F10C01054692000C30FEF7FB
:10A6900067FB21463846FFF7B5FF2C4604EB8603DF
:10A6A0000136C3F8148026612046BDE8F081020C13
:10A6B00012040346CAB90304102013F07F4F04BFED
:10A6C0001B02083013F0704F04BF1B01043013F05D
:10A6D000404F04BF9B000230002B05DB13F0804F7E
:10A6E00000F1010008BF202070470020E5E7036863
:10A6F000024613F007000BD0D90722D4980749BFB0
:10A700005B089B08012013605CBF13600220704748
:10A7100099B209B91B0C102013F0FF0F04BF1B0ADC
:10A720000830190704BF1B090430990704BF9B08B0
:10A730000230D90703D45B0800F1010003D0136095
:10A740007047002070472020704710B50C4601214B
:10A75000FFF724FF01224461026110BD2DE9F04F93
:10A7600015460A692B699A42B8BF0B460C46BCBF16
:10A770002C461D462769D5F81090A368616807EB41
:10A780000906B342B8BF013185B0FFF707FF00F1FA
:10A79000140101EB86080B46002243451DD304F14A
:10A7A000140305F1140203EB870702EB89030293FC
:10A7B0003B1B153B23F00303043304F11505AF42A3
:10A7C00038BF04230193029B0392934208D8002EC2
:10A7D0005ADC066105B0BDE8F08F43F8042BDCE7D6
:10A7E000B2F800A0BAF1000F24D004F1140E89468B
:10A7F0004FF0000C5EF8045BD9F800B0ABB21FFA62
:10A800008BFB0AFB03B34FEA154BD9F800506344A6
:10A810004FEA154C0AFB0BC505EB13459BB243EA07
:10A820000543774549F8043B4FEA154CE2D8019BB4
:10A8300041F803C0039BB3F802900432B9F1000F52
:10A8400020D00B6804F1140C8E464FF0000ABCF8BF
:10A850000050BEF802B009FB05B5AA449BB243EA1A
:10A860000A434EF8043B5CF8043BBEF800501B0C56
:10A8700009FB035303EB1A4367454FEA134AE6D833
:10A88000019D4B5104319EE758F8043D002BA0D1A7
:10A89000013E9CE72DE9F843154612F003020646F7
:10A8A0000F4607D0214C013A002354F82220FFF72D
:10A8B000C0FE0746AD1035D0746A3CB91020FEF7D3
:10A8C0003FFAC0E9014470620460C460D6F8248095
:10A8D000D8F808404CB940F271213046FFF735FFF7
:10A8E0000023C8F80800044603604FF00009EB0796
:10A8F0000AD5394622463046FFF730FF39468046B2
:10A900003046FFF77FFE47466D100BD0206838B900
:10A91000224621463046FFF721FF2060C0F8009014
:10A920000446E4E73846BDE8F88300BFC0E9020802
:10A930002DE9F0470C464968236903EB6218A368C8
:10A94000074691464FEA621A08F10106B3423FDB1F
:10A950003846FFF723FE0023054600F1140100F1FD
:10A9600010021846534536DB20692AEAEA7A04F1D8
:10A97000140319F01F0901EB8A0103EB800C2ED0A0
:10A98000C9F1200E8A460022186800FA09F0024335
:10A990004AF8042B53F8042B9C4522FA0EF2F3D804
:10A9A000ACEB0403153B23F00303043304F115005F
:10A9B000604588BF0423CA500AB108F10206013E6F
:10A9C00038462E612146FFF71DFE2846BDE8F08778
:10A9D00001315B00BAE742F8040F0133C2E70439E2
:10A9E00053F8042B41F8042F9C45F9D8E7E70A698E
:10A9F00003460069801A30B50DD11433143103EBCE
:10AA0000820401EB820154F8045D51F8042D954253
:10AA100002D004D3012030BDA342F4D3FBE74FF0B2
:10AA2000FF30F8E72DE9F84F0C4606461146204660
:10AA30001746FFF7DCFF051E08D129463046FFF711
:10AA4000ADFD0123C0E90435BDE8F88FA4BF3B4646
:10AA5000274630467968A6BF1C4600250125FFF72A
:10AA60009DFD3E69C560256907F1140104F11409D3
:10AA700000F1140E07F1100201EB860C09EB8505BD
:10AA8000F246002759F8043B52F804BF1FFA83F836
:10AA900017FA8BF71B0CA7EB0808C3EB1B4303EB60
:10AAA00028431FFA88F81F144D4548EA03434AF823
:10AAB000043BE7D82B1B153B23F003030433153469
:10AAC000A54238BF0423194473449E460D4665458C
:10AAD0000ED30CF10302521A22F0030203398C4503
:10AAE00038BF00221A4452F8043D7BB10661ABE73F
:10AAF00055F8048B17FA88F4221402EB1842A4B21A
:10AB000044EA02444EF8044B1714E0E7013EEAE73A
:10AB10002DE9F34101211C46DDE908659046FFF768
:10AB20003DFDC4F31303C4F30A5407462CBB019341
:10AB3000B8F1000326D068460093FFF7D8FD0099CE
:10AB4000F0B1019AC0F1200302FA03F30B43C240B3
:10AB50007B610192019BBB61002B14BF022101218B
:10AB60003961C4B1A4F233440444C0F13500346007
:10AB70002860384602B0BDE8F08143F48013D6E780
:10AB80007961E7E701A8FFF7B2FD019B7B61012135
:10AB900039612030E5E707EB8103A0F232403060F5
:10ABA0001869FFF784FDC0EB41112960E1E738B572
:10ABB00002FB01F52946FEF737F9044618B12A468B
:10ABC0000021FEF7DBF8204638BD7047704782B0A1
:10ABD00001B901A942B14BB113780B601278101E74
:10ABE00018BF012002B070471046FBE76FF001006C
:10ABF000F8E70346084641B1FF2A04D98A221A60C1
:10AC00004FF0FF3070470A7001207047044A054931
:10AC10001368002B08BF0B46184410601846704795
:10AC2000800E002018760020FCF76CBEFCF776BD85
:10AC30000D48854621F078F80C480D490D4A00234F
:10AC400002E0D458C4500433C4188C42F9D30A4AE1
:10AC50000A4C002301E013600432A242FBD3FEF74A
:10AC60004BF8FDF7A7FEFEE700FC002000000020E7
:10AC7000480E0020A01B0308480E00201876002074
:10AC800000F05AB80368074A934206D1DA69D2063F
:10AC900006D510221A6201F071BB034A9342F5D027
:10ACA000704700BF00800040003801404FF0B043C3
:10ACB0004FF0FF319A6B9963DA6BD9639A6B00227C
:10ACC0009A63D86BDA63186C1964186C1A64586C40
:10ACD0005964586C5A64986A9962986A9A62D86AF8
:10ACE000D962D86ADA62186B1963196B1A635A6CE5
:10ACF00042F001025A645A6C22F001025A64D3F8FD
:10AD0000902042F48032C3F89020D3F8902022F4AF
:10AD10008032C3F89020BFF34F8F0549054BCA68B6
:10AD200002F4E0621343CB60BFF34F8F00BFFDE737
:10AD300000ED00E00400FA054FF0B0434FF0FF31A2
:10AD40009A6B9963DA6BD9639A6B00229A63D86B1A
:10AD5000DA63186C1964186C1A64586C5964586C6E
:10AD60005A64986A9962986A9A62D86AD962D86A6B
:10AD7000DA62186B1963196B1A635A6C42F001029C
:10AD80005A645A6C22F001025A64D3F8902042F4BB
:10AD90008032C3F89020D3F8902022F48032C3F898
:10ADA0009020FEE7FEE7FEE7FEE7704770470CF0F5
:10ADB000C7BA000001480FF025BE00BFBC610020EB
:10ADC000014810F0FEBA00BF705F002001480FF08C
:10ADD000E1BF00BFBC61002001480EF0A9B800BF70
:10ADE000F065002001480EF0A3B800BFF461002018
:10ADF00001480EF09DB800BF5462002001480EF0DB
:10AE000097B800BF0065002010B5044C204610F034
:10AE100005FC2046BDE81040FFF734BF6065002008
:10AE2000704701200EF00CBA02200EF009BA04207F
:10AE30000EF006BA08200EF003BA10200EF000BA89
:10AE40000E4BDA68920602D520200EF0F9B9DA68C6
:10AE5000500601D54020F8E7DA68110601D58020B8
:10AE6000F3E7DA68D20502D54FF48070EDE7DB68CE
:10AE70009B0502D54FF40070E7E7704700080058C3
:10AE8000134BDA68510503D54FF480600EF0D8B942
:10AE9000DA68120502D54FF40060F7E7DA68D004EB
:10AEA00002D54FF48050F1E7DA68910402D54FF4EF
:10AEB0000050EBE7DA68520402D54FF48040E5E732
:10AEC000DB681B0402D54FF40040DFE7704700BF8A
:10AED0000008005810B5044C204610F09FFB204697
:10AEE000BDE81040FFF7CEBE7064002001480EF0B0
:10AEF00045BB00BFA463002001480EF0C6BF00BFE1
:10AF0000A463002001480DF0DFBB00BFB06000204B
:10AF10004FF0B04382B0DA6C0243DA64DB6C184065
:10AF20000190019B02B070471FB514284FF0000339
:10AF3000CDE902330C460CD8092812D90A380A2860
:10AF40000FD8DFE800F07B0E0E0E0E820E0E74118D
:10AF50006D00FE2800F08380FF2800F08280FD282D
:10AF60007AD06FF0030059E03F4A404B01931378C9
:10AF700043F0010313703E483E4A4FF00043C0E9DE
:10AF800000233D4B04221B688360426100230122A1
:10AF9000C2614FF4805106220383C0E90333C0E944
:10AFA0000933C0E90C12837680F8203080F82C3009
:10AFB000836380F83C30C3640CF00EFA08B100F0F3
:10AFC00049FF2B480CF0B0FD08B100F043FF00230F
:10AFD000274801A9CDE902330CF080FB08B100F04D
:10AFE00039FF23480CF0D4FC08B100F033FF0A21EC
:10AFF0001F480CF015FB1E480CF078FD1C480CF0A7
:10B000006AFB1E4B019A80B29A42208004BF00EB7B
:10B010004000208016480CF01DFD002004B010BD3B
:10B02000114A174B0193137843F00203A2E70E4A2B
:10B03000144B0193137843F004039BE70A4A124B25
:10B040000193137843F0080394E7074A0F4B0193E9
:10B05000137843F010038DE70D4B01938BE70D4BF5
:10B06000FBE7064BF9E700BF840E00200400000850
:10B070008C5F00200024014074020020004000B8D2
:10B080000800000C10000010400000180008002C00
:10B09000001000B0002000B470477047014B1878D2
:10B0A000704700BF79020020014B1878704700BF3D
:10B0B0007802002010B5044686B01422002101A8B1
:10B0C000FDF75CFE22685E4B9A4240F08E804FF0A6
:10B0D000B0435C4C1A6E42F400721A661B6E03F4A5
:10B0E00000730093009B2378DA0708D5132000F043
:10B0F00079FAB0F1904F7AD10120FFF709FF237858
:10B100009B0708D5142000F06DFAB0F1904F76D16E
:10B110000120FFF7FDFE2378580708D5122000F024
:10B1200061FAB0F1904F72D10120FFF7F1FE237860
:10B13000190708D50A2000F055FAB0F1904F6ED1EA
:10B140000120FFF7E5FE2378DA0608D50F2000F08E
:10B1500049FAB0F1904F6AD10120FFF7D9FE0023E0
:10B160004FF0030CCDE902C32378DB0709D5132088
:10B1700000F03DFA0190132000F034FA01A90DF01F
:10B1800033FF2378980709D5142000F030FA019096
:10B19000142000F027FA01A90DF026FF23785907A3
:10B1A00009D5122000F023FA0190122000F01AFABB
:10B1B00001A90DF019FF23781A0709D50A2000F01C
:10B1C00016FA01900A2000F00DFA01A90DF00CFF0B
:10B1D0002378DB0609D50F2000F009FA01900F2033
:10B1E00000F000FA01A90DF0FFFE06B010BD13201B
:10B1F00000F0F8F9144B984281D102207DE7142029
:10B2000000F0F0F9104B984285D1022081E712201E
:10B2100000F0E8F90C4B984289D1022085E70A201A
:10B2200000F0E0F9084B98428DD1022089E70F2009
:10B2300000F0D8F9044B984291D102208DE700BF6D
:10B2400000240140840E00200004004838B5026844
:10B25000324B9A4260D14FF0B042314C136E23F41E
:10B26000007313662378DD070ED5132000F0BAF9BA
:10B270000546132000F0BBF9014628460DF060FF9B
:10B28000237823F001032370237898070ED5142028
:10B2900000F0A8F90546142000F0A9F90146284657
:10B2A0000DF04EFF237823F0020323702378590713
:10B2B0000ED5122000F096F90546122000F097F9FD
:10B2C000014628460DF03CFF237823F00403237049
:10B2D00023781A070ED50A2000F084F905460A20C3
:10B2E00000F085F9014628460DF02AFF237823F067
:10B2F000080323702378DB060ED50F2000F072F9C7
:10B3000005460F2000F073F9014628460DF018FF9E
:10B31000237823F01003237038BD00BF00240140C0
:10B32000840E00200A4B00F11002C1781970817858
:10B3300059704178997010F8041BD970904203F14C
:10B340000403F2D1034B10221A800020704700BF83
:10B35000880E00207A0200202DE9F04F3B4EDFF8E6
:10B36000F4C085B002AF044690469A46384AF2606F
:10B3700000233046C6E900C3C6E909333D8ED7F83D
:10B3800034B0B36089467361F3620CF0C5FD304A96
:10B390007A6008B100F05EFD2C480CF0E0FD08B1C9
:10B3A00000F058FD2B480422C6E900020022B260DA
:10B3B000002C39D1746100227B682448F36001219C
:10B3C000C6E90912F2620CF0A7FD08B100F042FDD7
:10B3D0002B071DBF25F00F041034A4B22C46A30088
:10B3E000073323F00703ADEB030D02AE2246002125
:10B3F0003046FDF7C3FC2A4651463046FDF7B0FC07
:10B40000FF23009311485B4622463146B9F1000FF5
:10B4100014D10CF0FBFF70B90C480CF0A0FD80B902
:10B420000C37BD46BDE8F08F012C0CBF2022402216
:10B43000C6E90482BFE76FF00600F1E70DF074F88B
:10B44000E9E700F007FD0020EAE700BFB060002058
:10B45000980E00200018005821F00803102B01D08E
:10B46000202911D10A4B00F11002C178197081789E
:10B4700059704178997010F8041BD970904203F10B
:10B480000403F2D1002070476FF01F00704700BF27
:10B49000980E002007B5CDE90012002203461146A0
:10B4A0001046FFF759FF03B05DF804FB70B586B096
:10B4B00004460D4616460021102202A8FDF75EFC48
:10B4C000074B08491A8802A8FDF74AFCCDE9005647
:10B4D000234602AA00210120FFF73EFF06B070BDFF
:10B4E0007A020020880E002070B586B004460D4612
:10B4F00016460021102202A8FDF740FC074B084920
:10B500001A8802A8FDF72CFC0121CDE9005623463C
:10B5100002AA0846FFF720FF06B070BD7A0200209D
:10B52000880E002008B5FFF797FFC0B208BD08B528
:10B5300010230A461946FFF7ADFFC0B208BD70B52B
:10B540001446054618460E46FFF7ECFE23019BB253
:10B55000324619462846FFF7A9FFC0B270BD70B544
:10B560001446054618460E46FFF7DCFE23019BB243
:10B57000324619462846FFF7B7FFC0B270BD00003B
:10B58000034B00221A70034B01221A70704700BF50
:10B5900068740020EC740020024B53F8203003B193
:10B5A00018477047A8160020002201230342D1B299
:10B5B00002F101020DD02F290ED8084B08480022B5
:10B5C0001A70082300F8313000EBC10041600BF025
:10B5D00023BE5B009BB2E9E7704700BF68740020A0
:10B5E00028160020000900F590108002704700F036
:10B5F0000F030120984080B2704700002F2870B5DB
:10B6000003461CD8142444430D4A03F00F060125B9
:10B61000B54015511019022500240129C0E9024541
:10B6200001D1416001E00029FBD01846FFF7DAFFA5
:10B630001421BDE8704001FB03210DF0D5BC70BDA5
:10B64000A80E00202F2870B504460D4624D8FFF719
:10B65000C9FF012304F00F0103FA01F106460DF0C2
:10B660006FFD0E4A142325B903FB042302219960C0
:10B6700004E0012D0AD103FB04239D60142101FB8A
:10B6800004213046BDE870400DF0AEBC022DF5D16E
:10B6900003FB04230021EAE770BD00BFA80E0020D1
:10B6A0002F2808B50A46034615D851B9FFF79AFF67
:10B6B000012103F00F03994089B2BDE808400DF065
:10B6C000B9BD012907D1FFF78DFF03F00F0301FA80
:10B6D00003F399B2F1E708BD2F28F8B5054600F24B
:10B6E0008280414E1422424300F00F040123B0181F
:10B6F000A340B35003294FF00202C2602DD80129A4
:10B700002ED94FF4881242602846FFF76BFFC768B6
:10B7100093FAA3F2B2FA82F2510003228A403A402D
:10B7200093FAA3F3B3FA83F35B0022FA03F3012B3A
:10B730004FF014021ED0022B1CD0142101FB056116
:10B740000DF052FCD4B90620224602210CF04AFA30
:10B750000620BDE8F8400CF077BA0439012906D973
:10B76000142202FB05624FF444115160CCE74FF400
:10B770000412C8E702FB05629360DEE7012C06D1E4
:10B780000720002202210CF02DFA0720E1E7022C0D
:10B7900006D10820002221460CF024FA0820D8E720
:10B7A000032C06D10920002202210CF01BFA0920EB
:10B7B000CFE7042C06D10A20002202210CF012FA55
:10B7C0000A20C6E7053C042C4FF000024FF00201AE
:10B7D00004D816200CF006FA1620BAE729200CF03F
:10B7E00001FA2920B5E7F8BDA80E0020044B00F0AF
:10B7F0000F0053F820200AB943F8201000207047AA
:10B80000A81600202DE9F843174E184D184FDFF801
:10B810006480DFF8649000240F2C05DDA4F112038E
:10B82000052B01D91C2C15D157F8243093B9736816
:10B830002B60B3686B60F368AB603369EB602B7CA3
:10B8400043B198F800102046FFF746FF49462046CE
:10B85000FFF7CCFF0134302C06F1140605F1140576
:10B86000DAD1BDE8F88300BFA80E002068120020DE
:10B87000A81600207C02002081B50008F8B5124E01
:10B88000124D134F00240F2C05DDA4F11203052BDC
:10B8900001D91C2C10D157F824306BB933686B6078
:10B8A0007368AB60B368EB602046F3682B61FFF709
:10B8B00099FE29460DF098FB0134302C06F1140650
:10B8C00005F11405DFD1F8BD68120020A80E002094
:10B8D000A816002000B58DB02C22002101A8FDF78C
:10B8E0004DFA1748174B03604FF080420023C0E920
:10B8F0000433C0E90723836083614FF4807343629C
:10B900000FF0FEF808B100F0A5FA0D480FF01CFA90
:10B9100008B100F09FFA4FF07C53002207930848CB
:10B9200008924FF4807301A9029206920B930FF0D4
:10B9300043F908B100F08EFA00200DB05DF804FB69
:10B94000BC6100200028004007B5074B0DF1060040
:10B950001B699847BDF806304FF47A7202FB00303D
:10B96000002103B05DF804FB54E6020870477047FD
:10B9700008B50A480FF02DFA002211460C200CF0F1
:10B9800031F90C200CF060F900220D2011460CF06A
:10B9900029F9BDE808400D200CF056B980020020BE
:10B9A0007047000038B5054D002415F8013B0BB178
:10B9B000FFF7DEFF0134042CF7D138BD68170020F3
:10B9C00070B50D46144606460BF0F0FC30600BF0E7
:10B9D000F3FC28600BF0F6FC206070BDBFF34F8FC6
:10B9E0000549064BCA6802F4E0621343CB60BFF31B
:10B9F0004F8F00BFFDE700BF00ED00E00400FA0537
:10BA000072B6EFF3108303607047036883F3108806
:10BA100062B670477047000008B5044812F066FC33
:10BA2000002814BF6FF00600002008BD6C1700202E
:10BA3000084A0346002108481170042200F8332008
:10BA4000064A00EBC3000C2101FB032343600BF00B
:10BA5000E3BB00BF68740020AC1700201018002062
:10BA6000084A0346002108481170052200F83320D7
:10BA7000064A00EBC3000C2101FB032343600BF0DB
:10BA8000CBBB00BF6874002084170020D4170020AF
:10BA900083680BB1406818477047003818BF012011
:10BAA000704712F0B7BB000037B503460C241046B0
:10BAB0000E4A5C431519042B135598BF0C4AA96014
:10BAC00094BF52F823400024FFF7E7FF4FF0FF3107
:10BAD000024600932046074B12F0A6FB002814BF35
